:020000020000FC
:100000005098519A0F931F9307E610E00093C40095
:100010001093C50008E10093C10006E00093C20000
:100020001F910F910FEF0AB903E004B903E005B97E
:100030000FEF5AD104E008B904E016B11470103083
:1000400009F0FACF09E05CD15ED160D10A95E1F701
:10005000F3CF2F938F939F932AEF8EE39CE9019721
:10006000F1F72A95D1F700009F918F912F912F934F
:100070008F939F932AEF8EE39CE90197F1F72A95DE
:10008000D1F700009F918F912F910F9302E55F9818
:100090005E985D985C98289A07FD5F9A06FD5E9AC7
:1000A00005FD5D9A04FD5C9A299A2F938F939F9387
:1000B00021E08EE39CE90197F1F72A95D1F7000042
:1000C0009F918F912F9129985F985E985D985C9889
:1000D00003FD5F9A02FD5E9A01FD5D9A00FD5C9A48
:1000E000299A2F938F939F9321E08EE39CE90197A8
:1000F000F1F72A95D1F700009F918F912F912998C0
:100100005F985E985D985C980F912F938F939F9363
:100110002AEF8EE39CE90197F1F72A95D1F70000C9
:100120009F918F912F912F938F939F932AEF8EE31F
:100130009CE90197F1F72A95D1F700009F918F91E3
:100140002F911F930091C00007FF06C00091C600C9
:100150000D3021F00193FACF00E001C001E01F91C2
:100160000F9301E05F985E985D985C98289807FD72
:100170005F9A06FD5E9A05FD5D9A04FD5C9A299AD8
:100180002F938F939F9321E08EE39CE90197F1F7E2
:100190002A95D1F700009F918F912F9129985F9810
:1001A0005E985D985C9803FD5F9A02FD5E9A01FD82
:1001B0005D9A00FD5C9A299A2F938F939F9321E07B
:1001C0008EE39CE90197F1F72A95D1F700009F9102
:1001D0008F912F9129985F985E985D985C980F9108
:1001E0000F931F934F9305914030D9F15F985E981C
:1001F0005D985C98289A07FD5F9A06FD5E9A05FD5A
:100200005D9A04FD5C9A299A2F938F939F9321E026
:100210008EE39CE90197F1F72A95D1F700009F91B1
:100220008F912F9129985F985E985D985C9803FD57
:100230005F9A02FD5E9A01FD5D9A00FD5C9A299A23
:100240002F938F939F9321E08EE39CE90197F1F721
:100250002A95D1F700009F918F912F9129984A9567
:10026000C2CF0F930CE05F985E985D985C982898D9
:1002700007FD5F9A06FD5E9A05FD5D9A04FD5C9A96
:10028000299A2F938F939F9321E08EE39CE9019706
:10029000F1F72A95D1F700009F918F912F9129981E
:1002A0005F985E985D985C9803FD5F9A02FD5E9A88
:1002B00001FD5D9A00FD5C9A299A2F938F939F937D
:1002C00021E08EE39CE90197F1F72A95D1F7000030
:1002D0009F918F912F9129985F985E985D985C9877
:1002E0000F914F911F910F9108E305D00CE003D0BF
:1002F00006E001D008952898299A0BB92998089505
:1003000001E0F9DF089500E8F6DF089501D00895CF
:0A031000289A299A0BB9299808953C
:00000001FF
